{
  "contractName": "Voting",
  "abi": [
    {
      "inputs": [
        {
          "internalType": "address",
          "name": "",
          "type": "address"
        }
      ],
      "name": "voters",
      "outputs": [
        {
          "internalType": "string",
          "name": "voterid",
          "type": "string"
        },
        {
          "internalType": "string",
          "name": "party",
          "type": "string"
        }
      ],
      "stateMutability": "view",
      "type": "function",
      "constant": true
    },
    {
      "inputs": [
        {
          "internalType": "string",
          "name": "_voterid",
          "type": "string"
        },
        {
          "internalType": "string",
          "name": "_party",
          "type": "string"
        }
      ],
      "name": "vote",
      "outputs": [],
      "stateMutability": "nonpayable",
      "type": "function"
    },
    {
      "inputs": [
        {
          "internalType": "address",
          "name": "_voter",
          "type": "address"
        }
      ],
      "name": "getVoter",
      "outputs": [
        {
          "internalType": "string",
          "name": "",
          "type": "string"
        },
        {
          "internalType": "string",
          "name": "",
          "type": "string"
        }
      ],
      "stateMutability": "view",
      "type": "function",
      "constant": true
    }
  ],
  "bytecode": "0x608060405234801561001057600080fd5b50610926806100206000396000f3fe608060405234801561001057600080fd5b50600436106100415760003560e01c8063a3ec138d14610046578063d4f50f9814610077578063e8d5940d146100a8575b600080fd5b610060600480360381019061005b91906105e2565b6100c4565b60405161006e9291906106f0565b60405180910390f35b610091600480360381019061008c91906105e2565b6101f8565b60405161009f9291906106f0565b60405180910390f35b6100c260048036038101906100bd919061060b565b61039e565b005b60006020528060005260406000206000915090508060000180546100e790610838565b80601f016020809104026020016040519081016040528092919081815260200182805461011390610838565b80156101605780601f1061013557610100808354040283529160200191610160565b820191906000526020600020905b81548152906001019060200180831161014357829003601f168201915b50505050509080600101805461017590610838565b80601f01602080910402602001604051908101604052809291908181526020018280546101a190610838565b80156101ee5780601f106101c3576101008083540402835291602001916101ee565b820191906000526020600020905b8154815290600101906020018083116101d157829003601f168201915b5050505050905082565b6060806000808473ffffffffffffffffffffffffffffffffffffffff1673ffffffffffffffffffffffffffffffffffffffff1681526020019081526020016000206000016000808573ffffffffffffffffffffffffffffffffffffffff1673ffffffffffffffffffffffffffffffffffffffff16815260200190815260200160002060010181805461028990610838565b80601f01602080910402602001604051908101604052809291908181526020018280546102b590610838565b80156103025780601f106102d757610100808354040283529160200191610302565b820191906000526020600020905b8154815290600101906020018083116102e557829003601f168201915b5050505050915080805461031590610838565b80601f016020809104026020016040519081016040528092919081815260200182805461034190610838565b801561038e5780601f106103635761010080835404028352916020019161038e565b820191906000526020600020905b81548152906001019060200180831161037157829003601f168201915b5050505050905091509150915091565b60008060003373ffffffffffffffffffffffffffffffffffffffff1673ffffffffffffffffffffffffffffffffffffffff16815260200190815260200160002060000180546103ec90610838565b90501461042e576040517f08c379a000000000000000000000000000000000000000000000000000000000815260040161042590610727565b60405180910390fd5b6040518060400160405280838152602001828152506000803373ffffffffffffffffffffffffffffffffffffffff1673ffffffffffffffffffffffffffffffffffffffff168152602001908152602001600020600082015181600001908051906020019061049d9291906104c2565b5060208201518160010190805190602001906104ba9291906104c2565b509050505050565b8280546104ce90610838565b90600052602060002090601f0160209004810192826104f05760008555610537565b82601f1061050957805160ff1916838001178555610537565b82800160010185558215610537579182015b8281111561053657825182559160200191906001019061051b565b5b5090506105449190610548565b5090565b5b80821115610561576000816000905550600101610549565b5090565b600061057861057384610778565b610747565b90508281526020810184848401111561059057600080fd5b61059b8482856107f6565b509392505050565b6000813590506105b2816108d9565b92915050565b600082601f8301126105c957600080fd5b81356105d9848260208601610565565b91505092915050565b6000602082840312156105f457600080fd5b6000610602848285016105a3565b91505092915050565b6000806040838503121561061e57600080fd5b600083013567ffffffffffffffff81111561063857600080fd5b610644858286016105b8565b925050602083013567ffffffffffffffff81111561066157600080fd5b61066d858286016105b8565b9150509250929050565b6000610682826107a8565b61068c81856107b3565b935061069c818560208601610805565b6106a5816108c8565b840191505092915050565b60006106bd6017836107b3565b91507f566f7465722068617320616c726561647920766f7465640000000000000000006000830152602082019050919050565b6000604082019050818103600083015261070a8185610677565b9050818103602083015261071e8184610677565b90509392505050565b60006020820190508181036000830152610740816106b0565b9050919050565b6000604051905081810181811067ffffffffffffffff8211171561076e5761076d610899565b5b8060405250919050565b600067ffffffffffffffff82111561079357610792610899565b5b601f19601f8301169050602081019050919050565b600081519050919050565b600082825260208201905092915050565b60006107cf826107d6565b9050919050565b600073ffffffffffffffffffffffffffffffffffffffff82169050919050565b82818337600083830152505050565b60005b83811015610823578082015181840152602081019050610808565b83811115610832576000848401525b50505050565b6000600282049050600182168061085057607f821691505b602082108114156108645761086361086a565b5b50919050565b7f4e487b7100000000000000000000000000000000000000000000000000000000600052602260045260246000fd5b7f4e487b7100000000000000000000000000000000000000000000000000000000600052604160045260246000fd5b6000601f19601f8301169050919050565b6108e2816107c4565b81146108ed57600080fd5b5056fea2646970667358221220f358ce9992df5b609d311ff160103250206c8b3a11d4235fa3e9ee1c5647888164736f6c63430008000033",
  "immutableReferences": {},
  "source": "pragma solidity ^0.8.0;\r\n\r\ncontract Voting {\r\n    struct Voter {\r\n        string voterid;\r\n        string party;\r\n    }\r\n\r\n    mapping(address => Voter) public voters;\r\n\r\n    function vote(string memory _voterid, string memory _party) public {\r\n        require(bytes(voters[msg.sender].voterid).length == 0, \"Voter has already voted\");\r\n\r\n        voters[msg.sender] = Voter(_voterid, _party);\r\n    }\r\n\r\n    function getVoter(address _voter) public view returns (string memory, string memory) {\r\n        return (voters[_voter].voterid, voters[_voter].party);\r\n    }\r\n}\r\n\r\n",
  "sourcePath": "D:\\projects\\evotin-app\\my-truffle-project\\contracts\\Voting.sol",
  "compiler": {
    "name": "solc",
    "version": "0.8.0+commit.c7dfd78e.Emscripten.clang"
  },
  "schemaVersion": "3.4.16",
  "updatedAt": "2024-11-21T01:41:55.961Z",
  "networkType": "ethereum",
  "devdoc": {
    "kind": "dev",
    "methods": {},
    "version": 1
  },
  "userdoc": {
    "kind": "user",
    "methods": {},
    "version": 1
  }
}