{
  "contractName": "Voting",
  "abi": [
    {
      "inputs": [
        {
          "internalType": "address",
          "name": "",
          "type": "address"
        }
      ],
      "name": "voters",
      "outputs": [
        {
          "internalType": "string",
          "name": "name",
          "type": "string"
        },
        {
          "internalType": "string",
          "name": "state",
          "type": "string"
        },
        {
          "internalType": "string",
          "name": "party",
          "type": "string"
        }
      ],
      "stateMutability": "view",
      "type": "function",
      "constant": true
    },
    {
      "inputs": [
        {
          "internalType": "string",
          "name": "_name",
          "type": "string"
        },
        {
          "internalType": "string",
          "name": "_state",
          "type": "string"
        },
        {
          "internalType": "string",
          "name": "_party",
          "type": "string"
        }
      ],
      "name": "vote",
      "outputs": [],
      "stateMutability": "nonpayable",
      "type": "function"
    },
    {
      "inputs": [
        {
          "internalType": "address",
          "name": "_voter",
          "type": "address"
        }
      ],
      "name": "getVoter",
      "outputs": [
        {
          "internalType": "string",
          "name": "",
          "type": "string"
        },
        {
          "internalType": "string",
          "name": "",
          "type": "string"
        },
        {
          "internalType": "string",
          "name": "",
          "type": "string"
        }
      ],
      "stateMutability": "view",
      "type": "function",
      "constant": true
    }
  ],
  "bytecode": "0x608060405234801561001057600080fd5b506109a9806100206000396000f3fe608060405234801561001057600080fd5b50600436106100415760003560e01c806395f59fe114610046578063a3ec138d14610062578063d4f50f9814610094575b600080fd5b610060600480360381019061005b91906106ae565b6100c6565b005b61007c60048036038101906100779190610685565b61017e565b60405161008b9392919061077e565b60405180910390f35b6100ae60048036038101906100a99190610685565b610340565b6040516100bd9392919061077e565b60405180910390f35b6040518060600160405280848152602001838152602001828152506000803373ffffffffffffffffffffffffffffffffffffffff1673ffffffffffffffffffffffffffffffffffffffff168152602001908152602001600020600082015181600001908051906020019061013b929190610565565b506020820151816001019080519060200190610158929190610565565b506040820151816002019080519060200190610175929190610565565b50905050505050565b60006020528060005260406000206000915090508060000180546101a1906108bb565b80601f01602080910402602001604051908101604052809291908181526020018280546101cd906108bb565b801561021a5780601f106101ef5761010080835404028352916020019161021a565b820191906000526020600020905b8154815290600101906020018083116101fd57829003601f168201915b50505050509080600101805461022f906108bb565b80601f016020809104026020016040519081016040528092919081815260200182805461025b906108bb565b80156102a85780601f1061027d576101008083540402835291602001916102a8565b820191906000526020600020905b81548152906001019060200180831161028b57829003601f168201915b5050505050908060020180546102bd906108bb565b80601f01602080910402602001604051908101604052809291908181526020018280546102e9906108bb565b80156103365780601f1061030b57610100808354040283529160200191610336565b820191906000526020600020905b81548152906001019060200180831161031957829003601f168201915b5050505050905083565b606080606060008060008673ffffffffffffffffffffffffffffffffffffffff1673ffffffffffffffffffffffffffffffffffffffff1681526020019081526020016000206040518060600160405290816000820180546103a0906108bb565b80601f01602080910402602001604051908101604052809291908181526020018280546103cc906108bb565b80156104195780601f106103ee57610100808354040283529160200191610419565b820191906000526020600020905b8154815290600101906020018083116103fc57829003601f168201915b50505050508152602001600182018054610432906108bb565b80601f016020809104026020016040519081016040528092919081815260200182805461045e906108bb565b80156104ab5780601f10610480576101008083540402835291602001916104ab565b820191906000526020600020905b81548152906001019060200180831161048e57829003601f168201915b505050505081526020016002820180546104c4906108bb565b80601f01602080910402602001604051908101604052809291908181526020018280546104f0906108bb565b801561053d5780601f106105125761010080835404028352916020019161053d565b820191906000526020600020905b81548152906001019060200180831161052057829003601f168201915b5050505050815250509050806000015181602001518260400151935093509350509193909250565b828054610571906108bb565b90600052602060002090601f01602090048101928261059357600085556105da565b82601f106105ac57805160ff19168380011785556105da565b828001600101855582156105da579182015b828111156105d95782518255916020019190600101906105be565b5b5090506105e791906105eb565b5090565b5b808211156106045760008160009055506001016105ec565b5090565b600061061b610616846107fb565b6107ca565b90508281526020810184848401111561063357600080fd5b61063e848285610879565b509392505050565b6000813590506106558161095c565b92915050565b600082601f83011261066c57600080fd5b813561067c848260208601610608565b91505092915050565b60006020828403121561069757600080fd5b60006106a584828501610646565b91505092915050565b6000806000606084860312156106c357600080fd5b600084013567ffffffffffffffff8111156106dd57600080fd5b6106e98682870161065b565b935050602084013567ffffffffffffffff81111561070657600080fd5b6107128682870161065b565b925050604084013567ffffffffffffffff81111561072f57600080fd5b61073b8682870161065b565b9150509250925092565b60006107508261082b565b61075a8185610836565b935061076a818560208601610888565b6107738161094b565b840191505092915050565b600060608201905081810360008301526107988186610745565b905081810360208301526107ac8185610745565b905081810360408301526107c08184610745565b9050949350505050565b6000604051905081810181811067ffffffffffffffff821117156107f1576107f061091c565b5b8060405250919050565b600067ffffffffffffffff8211156108165761081561091c565b5b601f19601f8301169050602081019050919050565b600081519050919050565b600082825260208201905092915050565b600061085282610859565b9050919050565b600073ffffffffffffffffffffffffffffffffffffffff82169050919050565b82818337600083830152505050565b60005b838110156108a657808201518184015260208101905061088b565b838111156108b5576000848401525b50505050565b600060028204905060018216806108d357607f821691505b602082108114156108e7576108e66108ed565b5b50919050565b7f4e487b7100000000000000000000000000000000000000000000000000000000600052602260045260246000fd5b7f4e487b7100000000000000000000000000000000000000000000000000000000600052604160045260246000fd5b6000601f19601f8301169050919050565b61096581610847565b811461097057600080fd5b5056fea264697066735822122009f689db27e1209eba010f44a77ce5ed982473ce02bb97b08c9c4017f9d607c164736f6c63430008000033",
  "immutableReferences": {},
  "source": "// SPDX-License-Identifier: MIT\r\npragma solidity ^0.8.0;\r\n\r\ncontract Voting {\r\n    struct Voter {\r\n        string name;\r\n        string state;\r\n        string party;\r\n    }\r\n\r\n    mapping(address => Voter) public voters;\r\n\r\n    function vote(string memory _name, string memory _state, string memory _party) public {\r\n        voters[msg.sender] = Voter(_name, _state, _party);\r\n    }\r\n\r\n    function getVoter(address _voter) public view returns (string memory, string memory, string memory) {\r\n        Voter memory voter = voters[_voter];\r\n        return (voter.name, voter.state, voter.party);\r\n    }\r\n}\r\n\r\n",
  "sourcePath": "D:\\projects\\evotin\\evotin\\evotin-app\\my-truffle-project\\contracts\\Voting.sol",
  "compiler": {
    "name": "solc",
    "version": "0.8.0+commit.c7dfd78e.Emscripten.clang"
  },
  "schemaVersion": "3.4.16",
  "updatedAt": "2024-11-13T16:18:17.175Z",
  "networkType": "ethereum",
  "devdoc": {
    "kind": "dev",
    "methods": {},
    "version": 1
  },
  "userdoc": {
    "kind": "user",
    "methods": {},
    "version": 1
  }
}